:020000000628D0
:10000800803109008801F02AAF2265222000A20071
:10001800A2362208483A031D6B28BD22652220001B
:10002800A000023A031D6B28BD2265222000A10012
:100038002406031D6B28BD2265222000A300BD22D3
:1000480020002308403A031D2B2817226C28230878
:10005800B03A031D31287A226C282303031D362861
:1000680012216C282308023A031D3C28CD206C2855
:100078002308033A031D422891216C282308043AD7
:10008800031D482857216C282308103A031D4F28C0
:1000980000306D206C282308113A031D56280130C2
:1000A8006D206C282308123A031D5D2802306D204C
:1000B8006C282308133A031D642803306D206C282C
:1000C8002308173A031D6B2807306D206C28DF22A0
:1000D800E52AFD00E522892821000C1423000C14D0
:1000E800932821008C1423008C14932821000C15CC
:1000F80023000C15932821000C1623000C169328B6
:1001080021008E1523008E1593287D088400083061
:100118000402031893288231C730040782002100A3
:100128009E178F309E05FC309E057D08F400F40D67
:10013800F40D1D087406833974069D001D149D1462
:100148009D18A4281C08F800F901FA01FB017A0897
:10015800FB007908FA007808F900F8011B08F40098
:10016800F501F601F701F8047508F9047608FA04B0
:100178007708FB04AF226522FC00FC367C08483A6D
:10018800031DCC28BD227908F1007808F000C029A9
:10019800DF2A6522F300BD2201307305F200220038
:1001A8000C087206FE3972068C00F33673080139A2
:1001B800F200F20D0C087206FD3972068C00F33657
:1001C80073080139F200F20DF20D0C087206FB39C2
:1001D80072068C00F336F33673080139F200F20E1A
:1001E800F20D0C087206DF3972068C00F3367308BC
:1001F8000139F200F20DF20DF20D0E087206F73910
:1002080072068E00F33673080139F200F20EF20D11
:100218000E087206DF3972068E0008006522F300A8
:10022800BD2201307305F2000C087206FE39720611
:100238008C00F33673080139F200F20D0C087206CF
:10024800FD3972068C00F33673080139F200F20D9D
:10025800F20D0C087206FB3972068C00F3360C1688
:10026800F33673080139F200F20EF20D0C0872062B
:10027800DF3972068C00F33673080139F200F20D8B
:10028800F20DF20D0E087206F73972068E00F3367B
:1002980073080139F200F20EF20D0E087206DF390A
:1002A80072068E0008006522F300BD220130730536
:1002B800F20024000C087206FE3972068C00F33630
:1002C80073080139F200F20D0C087206FD39720646
:1002D8008C00F33673080139F200F20DF20D0C08A8
:1002E8007206FB3972068C00F33673080139F20086
:1002F800F20DF20DF20D0C087206F73972068C0039
:10030800F33673080139F200F20EF20D0C0872068A
:10031800DF3972068C00F3360800E522AF22652229
:10032800F400F4367408483A031DBF29BD22003092
:1003380020008E1A0130F500F5350E0CF300F30C91
:10034800730C0139F504F5350C0E890C0139F504E7
:10035800F5350C0E0139F504F5350C0C890C01390D
:10036800F504F5350C0C0139F504F5350C0801399F
:10037800F5047508DF29DF2AF3010030F11B01308D
:10038800F200F20D21000E087206FD3972068E0089
:1003980073080F3A0319D229F035F10D20000E1C0D
:1003A800D2290E18D5291030F30A7302031CC1296B
:1003B80021008E140800F10021008E10F201003097
:1003C800F11B0130F000F00D21000E087006FD3918
:1003D80070068E00F13520000E1CEF290E18F22948
:1003E8000830F20A7202031CE32921008E14080067
:1003F8008B131513720891007308F200F301F21BB6
:10040800F3039200151295161515700893007108DC
:10041800F000F101F01BF10394009512CF222300A4
:1004280015118B1708006522F300BD2273080139E6
:10043800F200F20E22000E087206EF3972068E00E4
:10044800F33673080139F200F20DF20D0E08720648
:10045800FB3972068E00F336080021008C16240042
:100468008C1620008C1A3B2AF030A40008000730B4
:10047800F001F1009E22F300FF3A031D472AA03045
:100488002000A400080073082000A400080023002E
:100498008E018C0121000E148E1422000E108E1075
:1004A80021000E120E1122000E120E1121009513BA
:1004B800C03024008C058C1621008C1622008C126A
:1004C80008000830F001F100F1080319782A20002B
:1004D8000E1C6B2A0E0C0139F0047103031DF03554
:1004E8000E18742AF103682A700808006522F400BF
:1004F800BD220730F001F1008C227408F0000730AB
:10050800F101F201F300FC2174082000A4000800A6
:100518008B137008230091007108F000F101F01BA3
:10052800F1039200151315161515CF222300151186
:100538008B1708007008230091007108F000F10182
:10054800F01BF1039200151315140000000023009E
:100558001308F200080020008E1C8E1CB12A8E1889
:10056800B32A0E18BA2A8E18B32AB72A0E1C080006
:10057800BA2A21008E1020000E1CBF2A0E18C22A8B
:1005880021008E140800702875287A287F2893285F
:1005980093289328842855309600AA3096009514FD
:1005A8000000000008007830210099040330990405
:1005B8001A1A0800DC2A20000E1CDF2A0E1C08006C
:1005C800E22A20008E1CE52A0E180800E52AD72208
:0E05D8004B2231220820EE2AA4012000EB2A3B
:020000040001F9
:04000E00E4F9FFDD35
:00000001FF
